{
  "_format": "hh-sol-artifact-1",
  "contractName": "FitVault",
  "sourceName": "src/FitVault.sol",
  "abi": [
    {
      "inputs": [
        {
          "internalType": "address",
          "name": "_usdt",
          "type": "address"
        },
        {
          "internalType": "address",
          "name": "_oracle",
          "type": "address"
        },
        {
          "internalType": "address",
          "name": "_communityPool",
          "type": "address"
        },
        {
          "internalType": "address",
          "name": "_treasury",
          "type": "address"
        }
      ],
      "stateMutability": "nonpayable",
      "type": "constructor"
    },
    {
      "inputs": [],
      "name": "AlreadyAttested",
      "type": "error"
    },
    {
      "inputs": [],
      "name": "EnforcedPause",
      "type": "error"
    },
    {
      "inputs": [],
      "name": "ExpectedPause",
      "type": "error"
    },
    {
      "inputs": [],
      "name": "InvalidDuration",
      "type": "error"
    },
    {
      "inputs": [],
      "name": "NotVaultOwner",
      "type": "error"
    },
    {
      "inputs": [],
      "name": "OnlyOracle",
      "type": "error"
    },
    {
      "inputs": [
        {
          "internalType": "address",
          "name": "owner",
          "type": "address"
        }
      ],
      "name": "OwnableInvalidOwner",
      "type": "error"
    },
    {
      "inputs": [
        {
          "internalType": "address",
          "name": "account",
          "type": "address"
        }
      ],
      "name": "OwnableUnauthorizedAccount",
      "type": "error"
    },
    {
      "inputs": [],
      "name": "ReentrancyGuardReentrantCall",
      "type": "error"
    },
    {
      "inputs": [
        {
          "internalType": "address",
          "name": "token",
          "type": "address"
        }
      ],
      "name": "SafeERC20FailedOperation",
      "type": "error"
    },
    {
      "inputs": [],
      "name": "VaultNotActive",
      "type": "error"
    },
    {
      "inputs": [],
      "name": "VaultWindowClosed",
      "type": "error"
    },
    {
      "inputs": [],
      "name": "VaultWindowNotClosed",
      "type": "error"
    },
    {
      "inputs": [],
      "name": "ZeroAddress",
      "type": "error"
    },
    {
      "inputs": [],
      "name": "ZeroAmount",
      "type": "error"
    },
    {
      "anonymous": false,
      "inputs": [
        {
          "indexed": true,
          "internalType": "address",
          "name": "oldPool",
          "type": "address"
        },
        {
          "indexed": true,
          "internalType": "address",
          "name": "newPool",
          "type": "address"
        }
      ],
      "name": "CommunityPoolUpdated",
      "type": "event"
    },
    {
      "anonymous": false,
      "inputs": [
        {
          "indexed": true,
          "internalType": "uint256",
          "name": "vaultId",
          "type": "uint256"
        },
        {
          "indexed": false,
          "internalType": "uint256",
          "name": "day",
          "type": "uint256"
        },
        {
          "indexed": false,
          "internalType": "uint256",
          "name": "value",
          "type": "uint256"
        },
        {
          "indexed": false,
          "internalType": "bool",
          "name": "passed",
          "type": "bool"
        }
      ],
      "name": "DayAttested",
      "type": "event"
    },
    {
      "anonymous": false,
      "inputs": [
        {
          "indexed": true,
          "internalType": "address",
          "name": "oldOracle",
          "type": "address"
        },
        {
          "indexed": true,
          "internalType": "address",
          "name": "newOracle",
          "type": "address"
        }
      ],
      "name": "OracleUpdated",
      "type": "event"
    },
    {
      "anonymous": false,
      "inputs": [
        {
          "indexed": true,
          "internalType": "address",
          "name": "previousOwner",
          "type": "address"
        },
        {
          "indexed": true,
          "internalType": "address",
          "name": "newOwner",
          "type": "address"
        }
      ],
      "name": "OwnershipTransferred",
      "type": "event"
    },
    {
      "anonymous": false,
      "inputs": [
        {
          "indexed": false,
          "internalType": "address",
          "name": "account",
          "type": "address"
        }
      ],
      "name": "Paused",
      "type": "event"
    },
    {
      "anonymous": false,
      "inputs": [
        {
          "indexed": true,
          "internalType": "address",
          "name": "oldTreasury",
          "type": "address"
        },
        {
          "indexed": true,
          "internalType": "address",
          "name": "newTreasury",
          "type": "address"
        }
      ],
      "name": "TreasuryUpdated",
      "type": "event"
    },
    {
      "anonymous": false,
      "inputs": [
        {
          "indexed": false,
          "internalType": "address",
          "name": "account",
          "type": "address"
        }
      ],
      "name": "Unpaused",
      "type": "event"
    },
    {
      "anonymous": false,
      "inputs": [
        {
          "indexed": true,
          "internalType": "uint256",
          "name": "vaultId",
          "type": "uint256"
        },
        {
          "indexed": true,
          "internalType": "address",
          "name": "owner",
          "type": "address"
        },
        {
          "indexed": false,
          "internalType": "uint256",
          "name": "stakeAmount",
          "type": "uint256"
        },
        {
          "indexed": false,
          "internalType": "enum FitVault.GoalType",
          "name": "goalType",
          "type": "uint8"
        },
        {
          "indexed": false,
          "internalType": "uint256",
          "name": "goalTarget",
          "type": "uint256"
        },
        {
          "indexed": false,
          "internalType": "uint256",
          "name": "durationDays",
          "type": "uint256"
        },
        {
          "indexed": false,
          "internalType": "bool",
          "name": "compounding",
          "type": "bool"
        }
      ],
      "name": "VaultCreated",
      "type": "event"
    },
    {
      "anonymous": false,
      "inputs": [
        {
          "indexed": true,
          "internalType": "uint256",
          "name": "vaultId",
          "type": "uint256"
        },
        {
          "indexed": true,
          "internalType": "address",
          "name": "owner",
          "type": "address"
        },
        {
          "indexed": false,
          "internalType": "enum FitVault.VaultStatus",
          "name": "outcome",
          "type": "uint8"
        },
        {
          "indexed": false,
          "internalType": "uint256",
          "name": "payout",
          "type": "uint256"
        },
        {
          "indexed": false,
          "internalType": "uint256",
          "name": "yieldAmount",
          "type": "uint256"
        }
      ],
      "name": "VaultSettled",
      "type": "event"
    },
    {
      "inputs": [],
      "name": "BPS_DENOMINATOR",
      "outputs": [
        {
          "internalType": "uint256",
          "name": "",
          "type": "uint256"
        }
      ],
      "stateMutability": "view",
      "type": "function"
    },
    {
      "inputs": [],
      "name": "COMMUNITY_BPS",
      "outputs": [
        {
          "internalType": "uint256",
          "name": "",
          "type": "uint256"
        }
      ],
      "stateMutability": "view",
      "type": "function"
    },
    {
      "inputs": [],
      "name": "PROTOCOL_FEE_BPS",
      "outputs": [
        {
          "internalType": "uint256",
          "name": "",
          "type": "uint256"
        }
      ],
      "stateMutability": "view",
      "type": "function"
    },
    {
      "inputs": [],
      "name": "SIMULATED_APY_BPS",
      "outputs": [
        {
          "internalType": "uint256",
          "name": "",
          "type": "uint256"
        }
      ],
      "stateMutability": "view",
      "type": "function"
    },
    {
      "inputs": [],
      "name": "YIELD_SHARE_BPS",
      "outputs": [
        {
          "internalType": "uint256",
          "name": "",
          "type": "uint256"
        }
      ],
      "stateMutability": "view",
      "type": "function"
    },
    {
      "inputs": [
        {
          "internalType": "uint256",
          "name": "vaultId",
          "type": "uint256"
        },
        {
          "internalType": "uint256",
          "name": "day",
          "type": "uint256"
        },
        {
          "internalType": "uint256",
          "name": "value",
          "type": "uint256"
        },
        {
          "internalType": "bool",
          "name": "passed",
          "type": "bool"
        }
      ],
      "name": "attestDay",
      "outputs": [],
      "stateMutability": "nonpayable",
      "type": "function"
    },
    {
      "inputs": [
        {
          "internalType": "uint256",
          "name": "vaultId",
          "type": "uint256"
        }
      ],
      "name": "cancelVault",
      "outputs": [],
      "stateMutability": "nonpayable",
      "type": "function"
    },
    {
      "inputs": [],
      "name": "communityPool",
      "outputs": [
        {
          "internalType": "address",
          "name": "",
          "type": "address"
        }
      ],
      "stateMutability": "view",
      "type": "function"
    },
    {
      "inputs": [
        {
          "internalType": "uint256",
          "name": "stakeAmount",
          "type": "uint256"
        },
        {
          "internalType": "uint8",
          "name": "goalType",
          "type": "uint8"
        },
        {
          "internalType": "uint256",
          "name": "goalTarget",
          "type": "uint256"
        },
        {
          "internalType": "uint256",
          "name": "durationDays",
          "type": "uint256"
        },
        {
          "internalType": "bool",
          "name": "compounding",
          "type": "bool"
        }
      ],
      "name": "createVault",
      "outputs": [
        {
          "internalType": "uint256",
          "name": "vaultId",
          "type": "uint256"
        }
      ],
      "stateMutability": "nonpayable",
      "type": "function"
    },
    {
      "inputs": [
        {
          "internalType": "uint256",
          "name": "vaultId",
          "type": "uint256"
        }
      ],
      "name": "currentYield",
      "outputs": [
        {
          "internalType": "uint256",
          "name": "",
          "type": "uint256"
        }
      ],
      "stateMutability": "view",
      "type": "function"
    },
    {
      "inputs": [
        {
          "internalType": "address",
          "name": "user",
          "type": "address"
        }
      ],
      "name": "getUserVaults",
      "outputs": [
        {
          "internalType": "uint256[]",
          "name": "",
          "type": "uint256[]"
        }
      ],
      "stateMutability": "view",
      "type": "function"
    },
    {
      "inputs": [
        {
          "internalType": "uint256",
          "name": "vaultId",
          "type": "uint256"
        }
      ],
      "name": "getVault",
      "outputs": [
        {
          "components": [
            {
              "internalType": "address",
              "name": "owner",
              "type": "address"
            },
            {
              "internalType": "uint256",
              "name": "stakeAmount",
              "type": "uint256"
            },
            {
              "internalType": "enum FitVault.GoalType",
              "name": "goalType",
              "type": "uint8"
            },
            {
              "internalType": "uint256",
              "name": "goalTarget",
              "type": "uint256"
            },
            {
              "internalType": "uint256",
              "name": "durationDays",
              "type": "uint256"
            },
            {
              "internalType": "uint256",
              "name": "startTime",
              "type": "uint256"
            },
            {
              "internalType": "uint256",
              "name": "endTime",
              "type": "uint256"
            },
            {
              "internalType": "bool",
              "name": "compounding",
              "type": "bool"
            },
            {
              "internalType": "enum FitVault.VaultStatus",
              "name": "status",
              "type": "uint8"
            },
            {
              "internalType": "uint256",
              "name": "daysCompleted",
              "type": "uint256"
            },
            {
              "internalType": "uint256",
              "name": "yieldAccrued",
              "type": "uint256"
            }
          ],
          "internalType": "struct FitVault.Vault",
          "name": "",
          "type": "tuple"
        }
      ],
      "stateMutability": "view",
      "type": "function"
    },
    {
      "inputs": [],
      "name": "getVaultCount",
      "outputs": [
        {
          "internalType": "uint256",
          "name": "",
          "type": "uint256"
        }
      ],
      "stateMutability": "view",
      "type": "function"
    },
    {
      "inputs": [],
      "name": "oracle",
      "outputs": [
        {
          "internalType": "address",
          "name": "",
          "type": "address"
        }
      ],
      "stateMutability": "view",
      "type": "function"
    },
    {
      "inputs": [],
      "name": "owner",
      "outputs": [
        {
          "internalType": "address",
          "name": "",
          "type": "address"
        }
      ],
      "stateMutability": "view",
      "type": "function"
    },
    {
      "inputs": [],
      "name": "pause",
      "outputs": [],
      "stateMutability": "nonpayable",
      "type": "function"
    },
    {
      "inputs": [],
      "name": "paused",
      "outputs": [
        {
          "internalType": "bool",
          "name": "",
          "type": "bool"
        }
      ],
      "stateMutability": "view",
      "type": "function"
    },
    {
      "inputs": [
        {
          "internalType": "uint256",
          "name": "vaultId",
          "type": "uint256"
        }
      ],
      "name": "projectedYield",
      "outputs": [
        {
          "internalType": "uint256",
          "name": "",
          "type": "uint256"
        }
      ],
      "stateMutability": "view",
      "type": "function"
    },
    {
      "inputs": [],
      "name": "renounceOwnership",
      "outputs": [],
      "stateMutability": "nonpayable",
      "type": "function"
    },
    {
      "inputs": [
        {
          "internalType": "address",
          "name": "token",
          "type": "address"
        },
        {
          "internalType": "uint256",
          "name": "amount",
          "type": "uint256"
        }
      ],
      "name": "rescueTokens",
      "outputs": [],
      "stateMutability": "nonpayable",
      "type": "function"
    },
    {
      "inputs": [
        {
          "internalType": "address",
          "name": "_pool",
          "type": "address"
        }
      ],
      "name": "setCommunityPool",
      "outputs": [],
      "stateMutability": "nonpayable",
      "type": "function"
    },
    {
      "inputs": [
        {
          "internalType": "address",
          "name": "_oracle",
          "type": "address"
        }
      ],
      "name": "setOracle",
      "outputs": [],
      "stateMutability": "nonpayable",
      "type": "function"
    },
    {
      "inputs": [
        {
          "internalType": "address",
          "name": "_treasury",
          "type": "address"
        }
      ],
      "name": "setTreasury",
      "outputs": [],
      "stateMutability": "nonpayable",
      "type": "function"
    },
    {
      "inputs": [
        {
          "internalType": "uint256",
          "name": "vaultId",
          "type": "uint256"
        },
        {
          "internalType": "bool",
          "name": "success",
          "type": "bool"
        }
      ],
      "name": "settle",
      "outputs": [],
      "stateMutability": "nonpayable",
      "type": "function"
    },
    {
      "inputs": [
        {
          "internalType": "address",
          "name": "newOwner",
          "type": "address"
        }
      ],
      "name": "transferOwnership",
      "outputs": [],
      "stateMutability": "nonpayable",
      "type": "function"
    },
    {
      "inputs": [],
      "name": "treasury",
      "outputs": [
        {
          "internalType": "address",
          "name": "",
          "type": "address"
        }
      ],
      "stateMutability": "view",
      "type": "function"
    },
    {
      "inputs": [],
      "name": "unpause",
      "outputs": [],
      "stateMutability": "nonpayable",
      "type": "function"
    },
    {
      "inputs": [],
      "name": "usdt",
      "outputs": [
        {
          "internalType": "contract IERC20",
          "name": "",
          "type": "address"
        }
      ],
      "stateMutability": "view",
      "type": "function"
    },
    {
      "inputs": [
        {
          "internalType": "address",
          "name": "",
          "type": "address"
        },
        {
          "internalType": "uint256",
          "name": "",
          "type": "uint256"
        }
      ],
      "name": "userVaults",
      "outputs": [
        {
          "internalType": "uint256",
          "name": "",
          "type": "uint256"
        }
      ],
      "stateMutability": "view",
      "type": "function"
    },
    {
      "inputs": [
        {
          "internalType": "uint256",
          "name": "",
          "type": "uint256"
        }
      ],
      "name": "vaults",
      "outputs": [
        {
          "internalType": "address",
          "name": "owner",
          "type": "address"
        },
        {
          "internalType": "uint256",
          "name": "stakeAmount",
          "type": "uint256"
        },
        {
          "internalType": "enum FitVault.GoalType",
          "name": "goalType",
          "type": "uint8"
        },
        {
          "internalType": "uint256",
          "name": "goalTarget",
          "type": "uint256"
        },
        {
          "internalType": "uint256",
          "name": "durationDays",
          "type": "uint256"
        },
        {
          "internalType": "uint256",
          "name": "startTime",
          "type": "uint256"
        },
        {
          "internalType": "uint256",
          "name": "endTime",
          "type": "uint256"
        },
        {
          "internalType": "bool",
          "name": "compounding",
          "type": "bool"
        },
        {
          "internalType": "enum FitVault.VaultStatus",
          "name": "status",
          "type": "uint8"
        },
        {
          "internalType": "uint256",
          "name": "daysCompleted",
          "type": "uint256"
        },
        {
          "internalType": "uint256",
          "name": "yieldAccrued",
          "type": "uint256"
        }
      ],
      "stateMutability": "view",
      "type": "function"
    }
  ],
  "bytecode": "0x60a06040523480156200001157600080fd5b5060405162001cce38038062001cce8339810160408190526200003491620001a3565b60017f9b779b17422d0df92223018b32b4d1fa46e071723d6817e2486d003becc55f005533806200007f57604051631e4fbdf760e01b81526000600482015260240160405180910390fd5b6200008a8162000136565b506001600160a01b0384161580620000a957506001600160a01b038316155b80620000bc57506001600160a01b038216155b80620000cf57506001600160a01b038116155b15620000ee5760405163d92e233d60e01b815260040160405180910390fd5b6001600160a01b03938416608052600180549385166001600160a01b031994851617905560028054928516928416929092179091556003805491909316911617905562000200565b600080546001600160a01b038381166001600160a01b0319831681178455604051919092169283917f8be0079c531659141344cd1fd0a4f28419497f9722a3daafe3b4186f6b6457e09190a35050565b80516001600160a01b03811681146200019e57600080fd5b919050565b60008060008060808587031215620001ba57600080fd5b620001c58562000186565b9350620001d56020860162000186565b9250620001e56040860162000186565b9150620001f56060860162000186565b905092959194509250565b608051611a816200024d600039600081816102290152818161055901528181610724015281816111f2015281816112ef0152818161132f0152818161140601526114400152611a816000f3fe608060405234801561001057600080fd5b50600436106101da5760003560e01c80637dc0d1d011610104578063a9cbaf87116100a2578063e7f3c69c11610071578063e7f3c69c14610451578063f0f4426014610471578063f2fde38b14610484578063fe417a471461049757600080fd5b8063a9cbaf8714610423578063be3782281461042c578063c67284dd14610435578063e1a452181461044857600080fd5b80638da5cb5b116100de5780638da5cb5b146103cc5780639403b634146103dd57806398317da5146103fd5780639c841fef1461041057600080fd5b80637dc0d1d0146103225780638456cb59146103355780638c64ea4a1461033d57600080fd5b806361d027b31161017c578063715c546c1161014b578063715c546c146102db57806374d4e491146102e457806376e211cd146102ec5780637adbf9731461030f57600080fd5b806361d027b3146102965780636ab60ca0146102a95780636d407d5f146102c0578063715018a6146102d357600080fd5b80633f4ba83a116101b85780633f4ba83a1461024b578063410a1db11461025357806357376198146102665780635c975abb1461027957600080fd5b80630cc1a407146101df57806314d140b0146101f45780632f48ab7d14610224575b600080fd5b6101f26101ed36600461165d565b6104aa565b005b600254610207906001600160a01b031681565b6040516001600160a01b0390911681526020015b60405180910390f35b6102077f000000000000000000000000000000000000000000000000000000000000000081565b6101f26105e9565b6101f2610261366004611692565b6105fb565b6101f26102743660046116ad565b610686565b600054600160a01b900460ff16604051901515815260200161021b565b600354610207906001600160a01b031681565b6102b26101a481565b60405190815260200161021b565b6102b26102ce3660046116e7565b6106b8565b6101f2610984565b6102b261213481565b6004546102b2565b6102b26102fa36600461165d565b60009081526005602052604090206009015490565b6101f261031d366004611692565b610996565b600154610207906001600160a01b031681565b6101f2610a21565b6103b561034b36600461165d565b600560208190526000918252604090912080546001820154600283015460038401546004850154958501546006860154600787015460088801546009909801546001600160a01b0390971698959760ff95861697949695939492938281169361010090930416918b565b60405161021b9b9a99989796959493929190611779565b6000546001600160a01b0316610207565b6103f06103eb36600461165d565b610a31565b60405161021b91906117e7565b6102b261040b36600461165d565b610b27565b6102b261041e3660046116ad565b610c33565b6102b261251c81565b6102b26101f481565b6101f2610443366004611884565b610c64565b6102b261271081565b61046461045f366004611692565b610da2565b60405161021b91906118c3565b6101f261047f366004611692565b610e0e565b6101f2610492366004611692565b610e99565b6101f26104a5366004611907565b610ed9565b6104b2610fc6565b8060008082815260056020526040902060070154610100900460ff1660038111156104df576104df61173f565b146104fd57604051630440ee7560e21b815260040160405180910390fd5b600082815260056020526040902080546001600160a01b0316331461053557604051630e7fea9d60e01b815260040160405180910390fd5b60078101805461ff0019166103001790556001810154610581906001600160a01b037f000000000000000000000000000000000000000000000000000000000000000016903390610fe2565b336001600160a01b0316837f84901f1fd4e21601f4846a10672173e47bd44aab05d684ae339e5192fee821e66003846001015460006040516105c593929190611933565b60405180910390a350506105e66001600080516020611a2c83398151915255565b50565b6105f1611017565b6105f9611044565b565b610603611017565b6001600160a01b03811661062a5760405163d92e233d60e01b815260040160405180910390fd5b6002546040516001600160a01b038084169216907fa51a600cc805cd62452e5a41f5f8803542db245db60db4caa47180fdce017fa290600090a3600280546001600160a01b0319166001600160a01b0392909216919091179055565b61068e611017565b6106b46106a36000546001600160a01b031690565b6001600160a01b0384169083610fe2565b5050565b60006106c2610fc6565b6106ca611099565b856000036106eb57604051631f2a200560e01b815260040160405180910390fd5b8215806106f9575061016d83115b1561071757604051637616640160e01b815260040160405180910390fd5b61074c6001600160a01b037f0000000000000000000000000000000000000000000000000000000000000000163330896110c4565b6004805490600061075c83611968565b919050559050604051806101600160405280336001600160a01b031681526020018781526020018660ff1660028111156107985761079861173f565b60028111156107a9576107a961173f565b815260200185815260200184815260200142815260200184620151806107cf9190611981565b6107d99042611998565b81528315156020820152604001600081526000602080830182905260409283018290528482526005815290829020835181546001600160a01b0319166001600160a01b0390911617815590830151600180830191909155918301516002808301805493949293909260ff199091169184908111156108595761085961173f565b0217905550606082015181600301556080820151816004015560a0820151816005015560c0820151816006015560e08201518160070160006101000a81548160ff0219169083151502179055506101008201518160070160016101000a81548160ff021916908360038111156108d1576108d161173f565b021790555061012082015160088201556101409091015160099091015533600081815260066020908152604082208054600181018255908352912001829055817f127df1321497c94f43359d199145e4b00f7ad09176174f6c0e783ac101c5d8ec8860ff891660028111156109485761094861173f565b88888860405161095c9594939291906119ab565b60405180910390a361097b6001600080516020611a2c83398151915255565b95945050505050565b61098c611017565b6105f96000611100565b61099e611017565b6001600160a01b0381166109c55760405163d92e233d60e01b815260040160405180910390fd5b6001546040516001600160a01b038084169216907f078c3b417dadf69374a59793b829c52001247130433427049317bde56607b1b790600090a3600180546001600160a01b0319166001600160a01b0392909216919091179055565b610a29611017565b6105f9611150565b610a396115f0565b60008281526005602090815260409182902082516101608101845281546001600160a01b03168152600182015492810192909252600280820154929391929184019160ff1690811115610a8e57610a8e61173f565b6002811115610a9f57610a9f61173f565b81526003828101546020830152600483015460408301526005830154606083015260068301546080830152600783015460ff808216151560a085015260c0909301926101009091041690811115610af857610af861173f565b6003811115610b0957610b0961173f565b81526008820154602082015260099091015460409091015292915050565b600081815260056020908152604080832081516101608101835281546001600160a01b0316815260018201549381019390935260028082015485949384019160ff90911690811115610b7b57610b7b61173f565b6002811115610b8c57610b8c61173f565b81526003828101546020830152600483015460408301526005830154606083015260068301546080830152600783015460ff808216151560a085015260c0909301926101009091041690811115610be557610be561173f565b6003811115610bf657610bf661173f565b81526020016008820154815260200160098201548152505090508060800151610c228260200151611193565b610c2c9190611981565b9392505050565b60066020528160005260406000208181548110610c4f57600080fd5b90600052602060002001600091509150505481565b6001546001600160a01b03163314610c8f576040516380fee10560e01b815260040160405180910390fd5b8360008082815260056020526040902060070154610100900460ff166003811115610cbc57610cbc61173f565b14610cda57604051630440ee7560e21b815260040160405180910390fd5b60008581526005602052604090206006810154421115610d0d576040516326325fd360e01b815260040160405180910390fd5b8215610d2b57600881018054906000610d2583611968565b91905055505b6000610d3a8260010154611193565b905080826009016000828254610d509190611998565b9091555050604080518781526020810187905285151581830152905188917fe2a5b900744b884f1496a8bdd8452047fc109552515e663b24607398df9f5393919081900360600190a250505050505050565b6001600160a01b038116600090815260066020908152604091829020805483518184028101840190945280845260609392830182828015610e0257602002820191906000526020600020905b815481526020019060010190808311610dee575b50505050509050919050565b610e16611017565b6001600160a01b038116610e3d5760405163d92e233d60e01b815260040160405180910390fd5b6003546040516001600160a01b038084169216907f4ab5be82436d353e61ca18726e984e561f5c1cc7c6d38b29d2553c790434705a90600090a3600380546001600160a01b0319166001600160a01b0392909216919091179055565b610ea1611017565b6001600160a01b038116610ed057604051631e4fbdf760e01b8152600060048201526024015b60405180910390fd5b6105e681611100565b6001546001600160a01b03163314610f04576040516380fee10560e01b815260040160405180910390fd5b8160008082815260056020526040902060070154610100900460ff166003811115610f3157610f3161173f565b14610f4f57604051630440ee7560e21b815260040160405180910390fd5b610f57610fc6565b60008381526005602052604090206006810154421015610f8a57604051635851ce1760e01b815260040160405180910390fd5b8215610f9f57610f9a84826111bf565b610fa9565b610fa984826113b3565b50610fc16001600080516020611a2c83398151915255565b505050565b610fce6114be565b6002600080516020611a2c83398151915255565b610fef83838360016114ee565b610fc157604051635274afe760e01b81526001600160a01b0384166004820152602401610ec7565b6000546001600160a01b031633146105f95760405163118cdaa760e01b8152336004820152602401610ec7565b61104c611554565b6000805460ff60a01b191690557f5db9ee0a495bf2e6ff9c91a7834c1ba4fdd244a5e8aa4e537bd38aeae4b073aa335b6040516001600160a01b03909116815260200160405180910390a1565b600054600160a01b900460ff16156105f95760405163d93c066560e01b815260040160405180910390fd5b6110d284848484600161157e565b6110fa57604051635274afe760e01b81526001600160a01b0385166004820152602401610ec7565b50505050565b600080546001600160a01b038381166001600160a01b0319831681178455604051919092169283917f8be0079c531659141344cd1fd0a4f28419497f9722a3daafe3b4186f6b6457e09190a35050565b611158611099565b6000805460ff60a01b1916600160a01b1790557f62e78cea01bee320cd4e420270b5ea74000d11b0c9f74754ebdbfc544b05a25861107c3390565b60006111a361271061016d611981565b6111af6101a484611981565b6111b991906119dd565b92915050565b60078101805461010061ff00199091161790556040516370a0823160e01b81523060048201526000906001600160a01b037f000000000000000000000000000000000000000000000000000000000000000016906370a0823190602401602060405180830381865afa158015611239573d6000803e3d6000fd5b505050506040513d601f19601f8201168201806040525081019061125d91906119ff565b9050600082600101548211611273576000611282565b60018301546112829083611a18565b905060008360090154821061129b57836009015461129d565b815b905060006127106112b061213484611981565b6112ba91906119dd565b905060006112c88284611a18565b905060008287600101546112dc9190611998565b8754909150611318906001600160a01b037f00000000000000000000000000000000000000000000000000000000000000008116911683610fe2565b811561135857600354611358906001600160a01b037f00000000000000000000000000000000000000000000000000000000000000008116911684610fe2565b865460098801546040516001600160a01b03909216918a917f84901f1fd4e21601f4846a10672173e47bd44aab05d684ae339e5192fee821e6916113a191600191879190611933565b60405180910390a35050505050505050565b60078101805461ff001916610200179055600181015460006127106113da6101f484611981565b6113e491906119dd565b905060006113f28284611a18565b60035490915061142f906001600160a01b037f00000000000000000000000000000000000000000000000000000000000000008116911684610fe2565b600254611469906001600160a01b037f00000000000000000000000000000000000000000000000000000000000000008116911683610fe2565b83546040516001600160a01b039091169086907f84901f1fd4e21601f4846a10672173e47bd44aab05d684ae339e5192fee821e6906114af906002906000908190611933565b60405180910390a35050505050565b600080516020611a2c833981519152546002036105f957604051633ee5aeb560e01b815260040160405180910390fd5b60405163a9059cbb60e01b60008181526001600160a01b038616600452602485905291602083604481808b5af19250600160005114831661154857838315161561153b573d6000823e3d81fd5b6000873b113d1516831692505b60405250949350505050565b600054600160a01b900460ff166105f957604051638dfc202b60e01b815260040160405180910390fd5b6040516323b872dd60e01b60008181526001600160a01b038781166004528616602452604485905291602083606481808c5af1925060016000511483166115de5783831516156115d1573d6000823e3d81fd5b6000883b113d1516831692505b60405250600060605295945050505050565b60408051610160810182526000808252602082018190529091820190815260200160008152602001600081526020016000815260200160008152602001600015158152602001600060038111156116495761164961173f565b815260200160008152602001600081525090565b60006020828403121561166f57600080fd5b5035919050565b80356001600160a01b038116811461168d57600080fd5b919050565b6000602082840312156116a457600080fd5b610c2c82611676565b600080604083850312156116c057600080fd5b6116c983611676565b946020939093013593505050565b8035801515811461168d57600080fd5b600080600080600060a086880312156116ff57600080fd5b85359450602086013560ff8116811461171757600080fd5b93506040860135925060608601359150611733608087016116d7565b90509295509295909350565b634e487b7160e01b600052602160045260246000fd5b600381106117655761176561173f565b9052565b600481106117655761176561173f565b6001600160a01b038c168152602081018b9052610160810161179e604083018c611755565b8960608301528860808301528760a08301528660c083015285151560e08301526117cc610100830186611769565b61012082019390935261014001529998505050505050505050565b81516001600160a01b0316815261016081016020830151602083015260408301516118156040840182611755565b50606083015160608301526080830151608083015260a083015160a083015260c083015160c083015260e083015161185160e084018215159052565b506101008084015161186582850182611769565b5050610120838101519083015261014092830151929091019190915290565b6000806000806080858703121561189a57600080fd5b8435935060208501359250604085013591506118b8606086016116d7565b905092959194509250565b6020808252825182820181905260009190848201906040850190845b818110156118fb578351835292840192918401916001016118df565b50909695505050505050565b6000806040838503121561191a57600080fd5b8235915061192a602084016116d7565b90509250929050565b606081016119418286611769565b602082019390935260400152919050565b634e487b7160e01b600052601160045260246000fd5b60006001820161197a5761197a611952565b5060010190565b80820281158282048414176111b9576111b9611952565b808201808211156111b9576111b9611952565b85815260a081016119bf6020830187611755565b84604083015283606083015282151560808301529695505050505050565b6000826119fa57634e487b7160e01b600052601260045260246000fd5b500490565b600060208284031215611a1157600080fd5b5051919050565b818103818111156111b9576111b961195256fe9b779b17422d0df92223018b32b4d1fa46e071723d6817e2486d003becc55f00a26469706673582212209e02584cc46eb3caa3a5cbce413c6dcc870ab97e603803ee9e5b7aafa2715bf264736f6c63430008180033",
  "linkReferences": {},
  "deployedLinkReferences": {}
}