{"src/CommunityPool.sol":{"CommunityPool":{"abi":[{"inputs":[{"internalType":"address","name":"_usdt","type":"address"}],"stateMutability":"nonpayable","type":"constructor"},{"inputs":[],"name":"ArrayLengthMismatch","type":"error"},{"inputs":[],"name":"DistributionExceedsBalance","type":"error"},{"inputs":[],"name":"NoClaimable","type":"error"},{"inputs":[{"internalType":"address","name":"owner","type":"address"}],"name":"OwnableInvalidOwner","type":"error"},{"inputs":[{"internalType":"address","name":"account","type":"address"}],"name":"OwnableUnauthorizedAccount","type":"error"},{"inputs":[],"name":"ReentrancyGuardReentrantCall","type":"error"},{"inputs":[{"internalType":"address","name":"token","type":"address"}],"name":"SafeERC20FailedOperation","type":"error"},{"anonymous":false,"inputs":[{"indexed":true,"internalType":"address","name":"user","type":"address"},{"indexed":true,"internalType":"uint256","name":"epoch","type":"uint256"},{"indexed":false,"internalType":"uint256","name":"amount","type":"uint256"}],"name":"Claimed","type":"event"},{"anonymous":false,"inputs":[{"indexed":true,"internalType":"uint256","name":"epoch","type":"uint256"},{"indexed":false,"internalType":"address[]","name":"winners","type":"address[]"},{"indexed":false,"internalType":"uint256[]","name":"amounts","type":"uint256[]"}],"name":"EpochDistributed","type":"event"},{"anonymous":false,"inputs":[{"indexed":true,"internalType":"uint256","name":"epoch","type":"uint256"},{"indexed":false,"internalType":"uint256","name":"amount","type":"uint256"}],"name":"ForfeitReceived","type":"event"},{"anonymous":false,"inputs":[{"indexed":true,"internalType":"address","name":"previousOwner","type":"address"},{"indexed":true,"internalType":"address","name":"newOwner","type":"address"}],"name":"OwnershipTransferred","type":"event"},{"inputs":[],"name":"claim","outputs":[],"stateMutability":"nonpayable","type":"function"},{"inputs":[{"internalType":"uint256","name":"epoch","type":"uint256"}],"name":"claimEpoch","outputs":[],"stateMutability":"nonpayable","type":"function"},{"inputs":[{"internalType":"uint256","name":"","type":"uint256"},{"internalType":"address","name":"","type":"address"}],"name":"claimable","outputs":[{"internalType":"uint256","name":"","type":"uint256"}],"stateMutability":"view","type":"function"},{"inputs":[],"name":"currentEpoch","outputs":[{"internalType":"uint256","name":"","type":"uint256"}],"stateMutability":"view","type":"function"},{"inputs":[{"internalType":"address[]","name":"winners","type":"address[]"},{"internalType":"uint256[]","name":"weights","type":"uint256[]"}],"name":"distributeEpoch","outputs":[],"stateMutability":"nonpayable","type":"function"},{"inputs":[{"internalType":"uint256","name":"","type":"uint256"}],"name":"epochBalance","outputs":[{"internalType":"uint256","name":"","type":"uint256"}],"stateMutability":"view","type":"function"},{"inputs":[],"name":"epochDuration","outputs":[{"internalType":"uint256","name":"","type":"uint256"}],"stateMutability":"view","type":"function"},{"inputs":[],"name":"epochStartTime","outputs":[{"internalType":"uint256","name":"","type":"uint256"}],"stateMutability":"view","type":"function"},{"inputs":[],"name":"owner","outputs":[{"internalType":"address","name":"","type":"address"}],"stateMutability":"view","type":"function"},{"inputs":[{"internalType":"address","name":"user","type":"address"}],"name":"pendingRewards","outputs":[{"internalType":"uint256","name":"total","type":"uint256"}],"stateMutability":"view","type":"function"},{"inputs":[],"name":"poolBalance","outputs":[{"internalType":"uint256","name":"","type":"uint256"}],"stateMutability":"view","type":"function"},{"inputs":[{"internalType":"uint256","name":"amount","type":"uint256"}],"name":"receiveForfeit","outputs":[],"stateMutability":"nonpayable","type":"function"},{"inputs":[],"name":"renounceOwnership","outputs":[],"stateMutability":"nonpayable","type":"function"},{"inputs":[{"internalType":"address","name":"","type":"address"}],"name":"totalClaimed","outputs":[{"internalType":"uint256","name":"","type":"uint256"}],"stateMutability":"view","type":"function"},{"inputs":[],"name":"totalDistributed","outputs":[{"internalType":"uint256","name":"","type":"uint256"}],"stateMutability":"view","type":"function"},{"inputs":[],"name":"totalReceived","outputs":[{"internalType":"uint256","name":"","type":"uint256"}],"stateMutability":"view","type":"function"},{"inputs":[{"internalType":"address","name":"newOwner","type":"address"}],"name":"transferOwnership","outputs":[],"stateMutability":"nonpayable","type":"function"},{"inputs":[],"name":"usdt","outputs":[{"internalType":"contract IERC20","name":"","type":"address"}],"stateMutability":"view","type":"function"}],"evm":{"bytecode":{"linkReferences":{},"object":"60a060405262093a8060015534801561001757600080fd5b50604051610eb0380380610eb0833981016040819052610036916100ef565b338061005c57604051631e4fbdf760e01b81526000600482015260240160405180910390fd5b6100658161009f565b5060017f9b779b17422d0df92223018b32b4d1fa46e071723d6817e2486d003becc55f00556001600160a01b03166080524260035561011f565b600080546001600160a01b038381166001600160a01b0319831681178455604051919092169283917f8be0079c531659141344cd1fd0a4f28419497f9722a3daafe3b4186f6b6457e09190a35050565b60006020828403121561010157600080fd5b81516001600160a01b038116811461011857600080fd5b9392505050565b608051610d6161014f60003960008181610148015281816103180152818161067301526107220152610d616000f3fe608060405234801561001057600080fd5b50600436106101165760003560e01c80638da5cb5b116100a2578063a7d6c4a011610071578063a7d6c4a014610237578063ef5d9ae81461024a578063efca2eed1461026a578063f2fde38b14610273578063f60ca6411461028657600080fd5b80638da5cb5b146101ea57806396365d44146101fb578063a0c7f71c14610203578063a3c2c4621461022e57600080fd5b80634e71d92d116100e95780634e71d92d146101a85780634ff0876a146101b057806354631dda146101b9578063715018a6146101d957806376671808146101e157600080fd5b80630ba9949f1461011b57806311c27e11146101305780632f48ab7d1461014357806331d7a26214610187575b600080fd5b61012e610129366004610a6a565b61028f565b005b61012e61013e366004610acf565b610391565b61016a7f000000000000000000000000000000000000000000000000000000000000000081565b6040516001600160a01b0390911681526020015b60405180910390f35b61019a610195366004610b57565b61056e565b60405190815260200161017e565b61012e6105b9565b61019a60015481565b61019a6101c7366004610a6a565b60046020526000908152604090205481565b61012e6106f8565b61019a60025481565b6000546001600160a01b031661016a565b61019a61070a565b61019a610211366004610b79565b600560209081526000928352604080842090915290825290205481565b61019a60075481565b61012e610245366004610a6a565b61079a565b61019a610258366004610b57565b60066020526000908152604090205481565b61019a60085481565b61012e610281366004610b57565b610812565b61019a60035481565b610297610852565b6000818152600560209081526040808320338452909152812054908190036102d257604051631129777360e21b815260040160405180910390fd5b60008281526005602090815260408083203384528252808320839055600690915281208054839290610305908490610bbb565b9091555061033f90506001600160a01b037f000000000000000000000000000000000000000000000000000000000000000016338361086e565b604051818152829033907f987d620f307ff6b94d58743cb7a7509f24071586a77759b77c2d4e29f75a2f9a9060200160405180910390a35061038e6001600080516020610d0c83398151915255565b50565b6103996108a8565b8281146103b95760405163512509d360e11b815260040160405180910390fd5b60025460009081526004602052604081205490805b83811015610404578484828181106103e8576103e8610bd4565b90506020020135826103fa9190610bbb565b91506001016103ce565b506000805b868110156104ca5760008387878481811061042657610426610bd4565b90506020020135866104389190610bea565b6104429190610c01565b60025460009081526005602052604081209192508291908b8b8681811061046b5761046b610bd4565b90506020020160208101906104809190610b57565b6001600160a01b03166001600160a01b0316815260200190815260200160002060008282546104af9190610bbb565b909155506104bf90508184610bbb565b925050600101610409565b50828111156104ec576040516314af0bab60e31b815260040160405180910390fd5b80600860008282546104fe9190610bbb565b90915550506002547f3e61b1f1cf6b6f9c11303e59e21302b59cefe4eea6fed2dfde9b2d5c840048b68888610535878a8a896108d5565b60405161054493929190610c23565b60405180910390a26002805490600061055c83610cb0565b90915550504260035550505050505050565b6000805b6002548110156105b35760008181526005602090815260408083206001600160a01b03871684529091529020546105a99083610bbb565b9150600101610572565b50919050565b6105c1610852565b6000805b60025481101561061f57600081815260056020908152604080832033845290915290205480156106165760008281526005602090815260408083203384529091528120556106138184610bbb565b92505b506001016105c5565b508060000361064157604051631129777360e21b815260040160405180910390fd5b3360009081526006602052604081208054839290610660908490610bbb565b9091555061069a90506001600160a01b037f000000000000000000000000000000000000000000000000000000000000000016338361086e565b60016002546106a99190610cc9565b60405182815233907f987d620f307ff6b94d58743cb7a7509f24071586a77759b77c2d4e29f75a2f9a9060200160405180910390a3506106f66001600080516020610d0c83398151915255565b565b6107006108a8565b6106f66000610984565b6040516370a0823160e01b81523060048201526000907f00000000000000000000000000000000000000000000000000000000000000006001600160a01b0316906370a0823190602401602060405180830381865afa158015610771573d6000803e3d6000fd5b505050506040513d601f19601f820116820180604052508101906107959190610cdc565b905090565b600254600090815260046020526040812080548392906107bb908490610bbb565b9250508190555080600760008282546107d49190610bbb565b90915550506002546040518281527f6feaae618d9efee105cb31a6643dababb92d56675fa64ae67a083d43a6b31d179060200160405180910390a250565b61081a6108a8565b6001600160a01b03811661084957604051631e4fbdf760e01b8152600060048201526024015b60405180910390fd5b61038e81610984565b61085a6109d4565b6002600080516020610d0c83398151915255565b61087b8383836001610a04565b6108a357604051635274afe760e01b81526001600160a01b0384166004820152602401610840565b505050565b6000546001600160a01b031633146106f65760405163118cdaa760e01b8152336004820152602401610840565b60608267ffffffffffffffff8111156108f0576108f0610cf5565b604051908082528060200260200182016040528015610919578160200160208202803683370190505b50905060005b8381101561097b578285858381811061093a5761093a610bd4565b905060200201358761094c9190610bea565b6109569190610c01565b82828151811061096857610968610bd4565b602090810291909101015260010161091f565b50949350505050565b600080546001600160a01b038381166001600160a01b0319831681178455604051919092169283917f8be0079c531659141344cd1fd0a4f28419497f9722a3daafe3b4186f6b6457e09190a35050565b600080516020610d0c833981519152546002036106f657604051633ee5aeb560e01b815260040160405180910390fd5b60405163a9059cbb60e01b60008181526001600160a01b038616600452602485905291602083604481808b5af192506001600051148316610a5e578383151615610a51573d6000823e3d81fd5b6000873b113d1516831692505b60405250949350505050565b600060208284031215610a7c57600080fd5b5035919050565b60008083601f840112610a9557600080fd5b50813567ffffffffffffffff811115610aad57600080fd5b6020830191508360208260051b8501011115610ac857600080fd5b9250929050565b60008060008060408587031215610ae557600080fd5b843567ffffffffffffffff80821115610afd57600080fd5b610b0988838901610a83565b90965094506020870135915080821115610b2257600080fd5b50610b2f87828801610a83565b95989497509550505050565b80356001600160a01b0381168114610b5257600080fd5b919050565b600060208284031215610b6957600080fd5b610b7282610b3b565b9392505050565b60008060408385031215610b8c57600080fd5b82359150610b9c60208401610b3b565b90509250929050565b634e487b7160e01b600052601160045260246000fd5b80820180821115610bce57610bce610ba5565b92915050565b634e487b7160e01b600052603260045260246000fd5b8082028115828204841417610bce57610bce610ba5565b600082610c1e57634e487b7160e01b600052601260045260246000fd5b500490565b6040808252810183905260008460608301825b86811015610c64576001600160a01b03610c4f84610b3b565b16825260209283019290910190600101610c36565b5060209150838103602085015280855180835260208301915060208701925060005b81811015610ca257835183529284019291840191600101610c86565b509098975050505050505050565b600060018201610cc257610cc2610ba5565b5060010190565b81810381811115610bce57610bce610ba5565b600060208284031215610cee57600080fd5b5051919050565b634e487b7160e01b600052604160045260246000fdfe9b779b17422d0df92223018b32b4d1fa46e071723d6817e2486d003becc55f00a264697066735822122054d8f551d6b9e83f418e86f06651f46a0cfe7bd18395780a23516e76477e34a764736f6c63430008180033","opcodes":"PUSH1 0xA0 PUSH1 0x40 MSTORE PUSH3 0x93A80 PUSH1 0x1 SSTORE CALLVALUE DUP1 ISZERO PUSH2 0x17 JUMPI PUSH1 0x0 DUP1 REVERT JUMPDEST POP PUSH1 0x40 MLOAD PUSH2 0xEB0 CODESIZE SUB DUP1 PUSH2 0xEB0 DUP4 CODECOPY DUP2 ADD PUSH1 0x40 DUP2 SWAP1 MSTORE PUSH2 0x36 SWAP2 PUSH2 0xEF JUMP JUMPDEST CALLER DUP1 PUSH2 0x5C JUMPI PUSH1 0x40 MLOAD PUSH4 0x1E4FBDF7 PUSH1 0xE0 SHL DUP2 MSTORE PUSH1 0x0 PUSH1 0x4 DUP3 ADD MSTORE PUSH1 0x24 ADD PUSH1 0x40 MLOAD DUP1 SWAP2 SUB SWAP1 REVERT JUMPDEST PUSH2 0x65 DUP2 PUSH2 0x9F JUMP JUMPDEST POP PUSH1 0x1 PUSH32 0x9B779B17422D0DF92223018B32B4D1FA46E071723D6817E2486D003BECC55F00 SSTORE PUSH1 0x1 PUSH1 0x1 PUSH1 0xA0 SHL SUB AND PUSH1 0x80 MSTORE TIMESTAMP PUSH1 0x3 SSTORE PUSH2 0x11F JUMP JUMPDEST PUSH1 0x0 DUP1 SLOAD PUSH1 0x1 PUSH1 0x1 PUSH1 0xA0 SHL SUB DUP4 DUP2 AND PUSH1 0x1 PUSH1 0x1 PUSH1 0xA0 SHL SUB NOT DUP4 AND DUP2 OR DUP5 SSTORE PUSH1 0x40 MLOAD SWAP2 SWAP1 SWAP3 AND SWAP3 DUP4 SWAP2 PUSH32 0x8BE0079C531659141344CD1FD0A4F28419497F9722A3DAAFE3B4186F6B6457E0 SWAP2 SWAP1 LOG3 POP POP JUMP JUMPDEST PUSH1 0x0 PUSH1 0x20 DUP3 DUP5 SUB SLT ISZERO PUSH2 0x101 JUMPI PUSH1 0x0 DUP1 REVERT JUMPDEST DUP2 MLOAD PUSH1 0x1 PUSH1 0x1 PUSH1 0xA0 SHL SUB DUP2 AND DUP2 EQ PUSH2 0x118 JUMPI PUSH1 0x0 DUP1 REVERT JUMPDEST SWAP4 SWAP3 POP POP POP JUMP JUMPDEST PUSH1 0x80 MLOAD PUSH2 0xD61 PUSH2 0x14F PUSH1 0x0 CODECOPY PUSH1 0x0 DUP2 DUP2 PUSH2 0x148 ADD MSTORE DUP2 DUP2 PUSH2 0x318 ADD MSTORE DUP2 DUP2 PUSH2 0x673 ADD MSTORE PUSH2 0x722 ADD MSTORE PUSH2 0xD61 PUSH1 0x0 RETURN INVALID PUSH1 0x80 PUSH1 0x40 MSTORE CALLVALUE DUP1 ISZERO PUSH2 0x10 JUMPI PUSH1 0x0 DUP1 REVERT JUMPDEST POP PUSH1 0x4 CALLDATASIZE LT PUSH2 0x116 JUMPI PUSH1 0x0 CALLDATALOAD PUSH1 0xE0 SHR DUP1 PUSH4 0x8DA5CB5B GT PUSH2 0xA2 JUMPI DUP1 PUSH4 0xA7D6C4A0 GT PUSH2 0x71 JUMPI DUP1 PUSH4 0xA7D6C4A0 EQ PUSH2 0x237 JUMPI DUP1 PUSH4 0xEF5D9AE8 EQ PUSH2 0x24A JUMPI DUP1 PUSH4 0xEFCA2EED EQ PUSH2 0x26A JUMPI DUP1 PUSH4 0xF2FDE38B EQ PUSH2 0x273 JUMPI DUP1 PUSH4 0xF60CA641 EQ PUSH2 0x286 JUMPI PUSH1 0x0 DUP1 REVERT JUMPDEST DUP1 PUSH4 0x8DA5CB5B EQ PUSH2 0x1EA JUMPI DUP1 PUSH4 0x96365D44 EQ PUSH2 0x1FB JUMPI DUP1 PUSH4 0xA0C7F71C EQ PUSH2 0x203 JUMPI DUP1 PUSH4 0xA3C2C462 EQ PUSH2 0x22E JUMPI PUSH1 0x0 DUP1 REVERT JUMPDEST DUP1 PUSH4 0x4E71D92D GT PUSH2 0xE9 JUMPI DUP1 PUSH4 0x4E71D92D EQ PUSH2 0x1A8 JUMPI DUP1 PUSH4 0x4FF0876A EQ PUSH2 0x1B0 JUMPI DUP1 PUSH4 0x54631DDA EQ PUSH2 0x1B9 JUMPI DUP1 PUSH4 0x715018A6 EQ PUSH2 0x1D9 JUMPI DUP1 PUSH4 0x76671808 EQ PUSH2 0x1E1 JUMPI PUSH1 0x0 DUP1 REVERT JUMPDEST DUP1 PUSH4 0xBA9949F EQ PUSH2 0x11B JUMPI DUP1 PUSH4 0x11C27E11 EQ PUSH2 0x130 JUMPI DUP1 PUSH4 0x2F48AB7D EQ PUSH2 0x143 JUMPI DUP1 PUSH4 0x31D7A262 EQ PUSH2 0x187 JUMPI JUMPDEST PUSH1 0x0 DUP1 REVERT JUMPDEST PUSH2 0x12E PUSH2 0x129 CALLDATASIZE PUSH1 0x4 PUSH2 0xA6A JUMP JUMPDEST PUSH2 0x28F JUMP JUMPDEST STOP JUMPDEST PUSH2 0x12E PUSH2 0x13E CALLDATASIZE PUSH1 0x4 PUSH2 0xACF JUMP JUMPDEST PUSH2 0x391 JUMP JUMPDEST PUSH2 0x16A PUSH32 0x0 DUP2 JUMP JUMPDEST PUSH1 0x40 MLOAD PUSH1 0x1 PUSH1 0x1 PUSH1 0xA0 SHL SUB SWAP1 SWAP2 AND DUP2 MSTORE PUSH1 0x20 ADD JUMPDEST PUSH1 0x40 MLOAD DUP1 SWAP2 SUB SWAP1 RETURN JUMPDEST PUSH2 0x19A PUSH2 0x195 CALLDATASIZE PUSH1 0x4 PUSH2 0xB57 JUMP JUMPDEST PUSH2 0x56E JUMP JUMPDEST PUSH1 0x40 MLOAD SWAP1 DUP2 MSTORE PUSH1 0x20 ADD PUSH2 0x17E JUMP JUMPDEST PUSH2 0x12E PUSH2 0x5B9 JUMP JUMPDEST PUSH2 0x19A PUSH1 0x1 SLOAD DUP2 JUMP JUMPDEST PUSH2 0x19A PUSH2 0x1C7 CALLDATASIZE PUSH1 0x4 PUSH2 0xA6A JUMP JUMPDEST PUSH1 0x4 PUSH1 0x20 MSTORE PUSH1 0x0 SWAP1 DUP2 MSTORE PUSH1 0x40 SWAP1 KECCAK256 SLOAD DUP2 JUMP JUMPDEST PUSH2 0x12E PUSH2 0x6F8 JUMP JUMPDEST PUSH2 0x19A PUSH1 0x2 SLOAD DUP2 JUMP JUMPDEST PUSH1 0x0 SLOAD PUSH1 0x1 PUSH1 0x1 PUSH1 0xA0 SHL SUB AND PUSH2 0x16A JUMP JUMPDEST PUSH2 0x19A PUSH2 0x70A JUMP JUMPDEST PUSH2 0x19A PUSH2 0x211 CALLDATASIZE PUSH1 0x4 PUSH2 0xB79 JUMP JUMPDEST PUSH1 0x5 PUSH1 0x20 SWAP1 DUP2 MSTORE PUSH1 0x0 SWAP3 DUP4 MSTORE PUSH1 0x40 DUP1 DUP5 KECCAK256 SWAP1 SWAP2 MSTORE SWAP1 DUP3 MSTORE SWAP1 KECCAK256 SLOAD DUP2 JUMP JUMPDEST PUSH2 0x19A PUSH1 0x7 SLOAD DUP2 JUMP JUMPDEST PUSH2 0x12E PUSH2 0x245 CALLDATASIZE PUSH1 0x4 PUSH2 0xA6A JUMP JUMPDEST PUSH2 0x79A JUMP JUMPDEST PUSH2 0x19A PUSH2 0x258 CALLDATASIZE PUSH1 0x4 PUSH2 0xB57 JUMP JUMPDEST PUSH1 0x6 PUSH1 0x20 MSTORE PUSH1 0x0 SWAP1 DUP2 MSTORE PUSH1 0x40 SWAP1 KECCAK256 SLOAD DUP2 JUMP JUMPDEST PUSH2 0x19A PUSH1 0x8 SLOAD DUP2 JUMP JUMPDEST PUSH2 0x12E PUSH2 0x281 CALLDATASIZE PUSH1 0x4 PUSH2 0xB57 JUMP JUMPDEST PUSH2 0x812 JUMP JUMPDEST PUSH2 0x19A PUSH1 0x3 SLOAD DUP2 JUMP JUMPDEST PUSH2 0x297 PUSH2 0x852 JUMP JUMPDEST PUSH1 0x0 DUP2 DUP2 MSTORE PUSH1 0x5 PUSH1 0x20 SWAP1 DUP2 MSTORE PUSH1 0x40 DUP1 DUP4 KECCAK256 CALLER DUP5 MSTORE SWAP1 SWAP2 MSTORE DUP2 KECCAK256 SLOAD SWAP1 DUP2 SWAP1 SUB PUSH2 0x2D2 JUMPI PUSH1 0x40 MLOAD PUSH4 0x11297773 PUSH1 0xE2 SHL DUP2 MSTORE PUSH1 0x4 ADD PUSH1 0x40 MLOAD DUP1 SWAP2 SUB SWAP1 REVERT JUMPDEST PUSH1 0x0 DUP3 DUP2 MSTORE PUSH1 0x5 PUSH1 0x20 SWAP1 DUP2 MSTORE PUSH1 0x40 DUP1 DUP4 KECCAK256 CALLER DUP5 MSTORE DUP3 MSTORE DUP1 DUP4 KECCAK256 DUP4 SWAP1 SSTORE PUSH1 0x6 SWAP1 SWAP2 MSTORE DUP2 KECCAK256 DUP1 SLOAD DUP4 SWAP3 SWAP1 PUSH2 0x305 SWAP1 DUP5 SWAP1 PUSH2 0xBBB JUMP JUMPDEST SWAP1 SWAP2 SSTORE POP PUSH2 0x33F SWAP1 POP PUSH1 0x1 PUSH1 0x1 PUSH1 0xA0 SHL SUB PUSH32 0x0 AND CALLER DUP4 PUSH2 0x86E JUMP JUMPDEST PUSH1 0x40 MLOAD DUP2 DUP2 MSTORE DUP3 SWAP1 CALLER SWAP1 PUSH32 0x987D620F307FF6B94D58743CB7A7509F24071586A77759B77C2D4E29F75A2F9A SWAP1 PUSH1 0x20 ADD PUSH1 0x40 MLOAD DUP1 SWAP2 SUB SWAP1 LOG3 POP PUSH2 0x38E PUSH1 0x1 PUSH1 0x0 DUP1 MLOAD PUSH1 0x20 PUSH2 0xD0C DUP4 CODECOPY DUP2 MLOAD SWAP2 MSTORE SSTORE JUMP JUMPDEST POP JUMP JUMPDEST PUSH2 0x399 PUSH2 0x8A8 JUMP JUMPDEST DUP3 DUP2 EQ PUSH2 0x3B9 JUMPI PUSH1 0x40 MLOAD PUSH4 0x512509D3 PUSH1 0xE1 SHL DUP2 MSTORE PUSH1 0x4 ADD PUSH1 0x40 MLOAD DUP1 SWAP2 SUB SWAP1 REVERT JUMPDEST PUSH1 0x2 SLOAD PUSH1 0x0 SWAP1 DUP2 MSTORE PUSH1 0x4 PUSH1 0x20 MSTORE PUSH1 0x40 DUP2 KECCAK256 SLOAD SWAP1 DUP1 JUMPDEST DUP4 DUP2 LT ISZERO PUSH2 0x404 JUMPI DUP5 DUP5 DUP3 DUP2 DUP2 LT PUSH2 0x3E8 JUMPI PUSH2 0x3E8 PUSH2 0xBD4 JUMP JUMPDEST SWAP1 POP PUSH1 0x20 MUL ADD CALLDATALOAD DUP3 PUSH2 0x3FA SWAP2 SWAP1 PUSH2 0xBBB JUMP JUMPDEST SWAP2 POP PUSH1 0x1 ADD PUSH2 0x3CE JUMP JUMPDEST POP PUSH1 0x0 DUP1 JUMPDEST DUP7 DUP2 LT ISZERO PUSH2 0x4CA JUMPI PUSH1 0x0 DUP4 DUP8 DUP8 DUP5 DUP2 DUP2 LT PUSH2 0x426 JUMPI PUSH2 0x426 PUSH2 0xBD4 JUMP JUMPDEST SWAP1 POP PUSH1 0x20 MUL ADD CALLDATALOAD DUP7 PUSH2 0x438 SWAP2 SWAP1 PUSH2 0xBEA JUMP JUMPDEST PUSH2 0x442 SWAP2 SWAP1 PUSH2 0xC01 JUMP JUMPDEST PUSH1 0x2 SLOAD PUSH1 0x0 SWAP1 DUP2 MSTORE PUSH1 0x5 PUSH1 0x20 MSTORE PUSH1 0x40 DUP2 KECCAK256 SWAP2 SWAP3 POP DUP3 SWAP2 SWAP1 DUP12 DUP12 DUP7 DUP2 DUP2 LT PUSH2 0x46B JUMPI PUSH2 0x46B PUSH2 0xBD4 JUMP JUMPDEST SWAP1 POP PUSH1 0x20 MUL ADD PUSH1 0x20 DUP2 ADD SWAP1 PUSH2 0x480 SWAP2 SWAP1 PUSH2 0xB57 JUMP JUMPDEST PUSH1 0x1 PUSH1 0x1 PUSH1 0xA0 SHL SUB AND PUSH1 0x1 PUSH1 0x1 PUSH1 0xA0 SHL SUB AND DUP2 MSTORE PUSH1 0x20 ADD SWAP1 DUP2 MSTORE PUSH1 0x20 ADD PUSH1 0x0 KECCAK256 PUSH1 0x0 DUP3 DUP3 SLOAD PUSH2 0x4AF SWAP2 SWAP1 PUSH2 0xBBB JUMP JUMPDEST SWAP1 SWAP2 SSTORE POP PUSH2 0x4BF SWAP1 POP DUP2 DUP5 PUSH2 0xBBB JUMP JUMPDEST SWAP3 POP POP PUSH1 0x1 ADD PUSH2 0x409 JUMP JUMPDEST POP DUP3 DUP2 GT ISZERO PUSH2 0x4EC JUMPI PUSH1 0x40 MLOAD PUSH4 0x14AF0BAB PUSH1 0xE3 SHL DUP2 MSTORE PUSH1 0x4 ADD PUSH1 0x40 MLOAD DUP1 SWAP2 SUB SWAP1 REVERT JUMPDEST DUP1 PUSH1 0x8 PUSH1 0x0 DUP3 DUP3 SLOAD PUSH2 0x4FE SWAP2 SWAP1 PUSH2 0xBBB JUMP JUMPDEST SWAP1 SWAP2 SSTORE POP POP PUSH1 0x2 SLOAD PUSH32 0x3E61B1F1CF6B6F9C11303E59E21302B59CEFE4EEA6FED2DFDE9B2D5C840048B6 DUP9 DUP9 PUSH2 0x535 DUP8 DUP11 DUP11 DUP10 PUSH2 0x8D5 JUMP JUMPDEST PUSH1 0x40 MLOAD PUSH2 0x544 SWAP4 SWAP3 SWAP2 SWAP1 PUSH2 0xC23 JUMP JUMPDEST PUSH1 0x40 MLOAD DUP1 SWAP2 SUB SWAP1 LOG2 PUSH1 0x2 DUP1 SLOAD SWAP1 PUSH1 0x0 PUSH2 0x55C DUP4 PUSH2 0xCB0 JUMP JUMPDEST SWAP1 SWAP2 SSTORE POP POP TIMESTAMP PUSH1 0x3 SSTORE POP POP POP POP POP POP POP JUMP JUMPDEST PUSH1 0x0 DUP1 JUMPDEST PUSH1 0x2 SLOAD DUP2 LT ISZERO PUSH2 0x5B3 JUMPI PUSH1 0x0 DUP2 DUP2 MSTORE PUSH1 0x5 PUSH1 0x20 SWAP1 DUP2 MSTORE PUSH1 0x40 DUP1 DUP4 KECCAK256 PUSH1 0x1 PUSH1 0x1 PUSH1 0xA0 SHL SUB DUP8 AND DUP5 MSTORE SWAP1 SWAP2 MSTORE SWAP1 KECCAK256 SLOAD PUSH2 0x5A9 SWAP1 DUP4 PUSH2 0xBBB JUMP JUMPDEST SWAP2 POP PUSH1 0x1 ADD PUSH2 0x572 JUMP JUMPDEST POP SWAP2 SWAP1 POP JUMP JUMPDEST PUSH2 0x5C1 PUSH2 0x852 JUMP JUMPDEST PUSH1 0x0 DUP1 JUMPDEST PUSH1 0x2 SLOAD DUP2 LT ISZERO PUSH2 0x61F JUMPI PUSH1 0x0 DUP2 DUP2 MSTORE PUSH1 0x5 PUSH1 0x20 SWAP1 DUP2 MSTORE PUSH1 0x40 DUP1 DUP4 KECCAK256 CALLER DUP5 MSTORE SWAP1 SWAP2 MSTORE SWAP1 KECCAK256 SLOAD DUP1 ISZERO PUSH2 0x616 JUMPI PUSH1 0x0 DUP3 DUP2 MSTORE PUSH1 0x5 PUSH1 0x20 SWAP1 DUP2 MSTORE PUSH1 0x40 DUP1 DUP4 KECCAK256 CALLER DUP5 MSTORE SWAP1 SWAP2 MSTORE DUP2 KECCAK256 SSTORE PUSH2 0x613 DUP2 DUP5 PUSH2 0xBBB JUMP JUMPDEST SWAP3 POP JUMPDEST POP PUSH1 0x1 ADD PUSH2 0x5C5 JUMP JUMPDEST POP DUP1 PUSH1 0x0 SUB PUSH2 0x641 JUMPI PUSH1 0x40 MLOAD PUSH4 0x11297773 PUSH1 0xE2 SHL DUP2 MSTORE PUSH1 0x4 ADD PUSH1 0x40 MLOAD DUP1 SWAP2 SUB SWAP1 REVERT JUMPDEST CALLER PUSH1 0x0 SWAP1 DUP2 MSTORE PUSH1 0x6 PUSH1 0x20 MSTORE PUSH1 0x40 DUP2 KECCAK256 DUP1 SLOAD DUP4 SWAP3 SWAP1 PUSH2 0x660 SWAP1 DUP5 SWAP1 PUSH2 0xBBB JUMP JUMPDEST SWAP1 SWAP2 SSTORE POP PUSH2 0x69A SWAP1 POP PUSH1 0x1 PUSH1 0x1 PUSH1 0xA0 SHL SUB PUSH32 0x0 AND CALLER DUP4 PUSH2 0x86E JUMP JUMPDEST PUSH1 0x1 PUSH1 0x2 SLOAD PUSH2 0x6A9 SWAP2 SWAP1 PUSH2 0xCC9 JUMP JUMPDEST PUSH1 0x40 MLOAD DUP3 DUP2 MSTORE CALLER SWAP1 PUSH32 0x987D620F307FF6B94D58743CB7A7509F24071586A77759B77C2D4E29F75A2F9A SWAP1 PUSH1 0x20 ADD PUSH1 0x40 MLOAD DUP1 SWAP2 SUB SWAP1 LOG3 POP PUSH2 0x6F6 PUSH1 0x1 PUSH1 0x0 DUP1 MLOAD PUSH1 0x20 PUSH2 0xD0C DUP4 CODECOPY DUP2 MLOAD SWAP2 MSTORE SSTORE JUMP JUMPDEST JUMP JUMPDEST PUSH2 0x700 PUSH2 0x8A8 JUMP JUMPDEST PUSH2 0x6F6 PUSH1 0x0 PUSH2 0x984 JUMP JUMPDEST PUSH1 0x40 MLOAD PUSH4 0x70A08231 PUSH1 0xE0 SHL DUP2 MSTORE ADDRESS PUSH1 0x4 DUP3 ADD MSTORE PUSH1 0x0 SWAP1 PUSH32 0x0 PUSH1 0x1 PUSH1 0x1 PUSH1 0xA0 SHL SUB AND SWAP1 PUSH4 0x70A08231 SWAP1 PUSH1 0x24 ADD PUSH1 0x20 PUSH1 0x40 MLOAD DUP1 DUP4 SUB DUP2 DUP7 GAS STATICCALL ISZERO DUP1 ISZERO PUSH2 0x771 JUMPI RETURNDATASIZE PUSH1 0x0 DUP1 RETURNDATACOPY RETURNDATASIZE PUSH1 0x0 REVERT JUMPDEST POP POP POP POP PUSH1 0x40 MLOAD RETURNDATASIZE PUSH1 0x1F NOT PUSH1 0x1F DUP3 ADD AND DUP3 ADD DUP1 PUSH1 0x40 MSTORE POP DUP2 ADD SWAP1 PUSH2 0x795 SWAP2 SWAP1 PUSH2 0xCDC JUMP JUMPDEST SWAP1 POP SWAP1 JUMP JUMPDEST PUSH1 0x2 SLOAD PUSH1 0x0 SWAP1 DUP2 MSTORE PUSH1 0x4 PUSH1 0x20 MSTORE PUSH1 0x40 DUP2 KECCAK256 DUP1 SLOAD DUP4 SWAP3 SWAP1 PUSH2 0x7BB SWAP1 DUP5 SWAP1 PUSH2 0xBBB JUMP JUMPDEST SWAP3 POP POP DUP2 SWAP1 SSTORE POP DUP1 PUSH1 0x7 PUSH1 0x0 DUP3 DUP3 SLOAD PUSH2 0x7D4 SWAP2 SWAP1 PUSH2 0xBBB JUMP JUMPDEST SWAP1 SWAP2 SSTORE POP POP PUSH1 0x2 SLOAD PUSH1 0x40 MLOAD DUP3 DUP2 MSTORE PUSH32 0x6FEAAE618D9EFEE105CB31A6643DABABB92D56675FA64AE67A083D43A6B31D17 SWAP1 PUSH1 0x20 ADD PUSH1 0x40 MLOAD DUP1 SWAP2 SUB SWAP1 LOG2 POP JUMP JUMPDEST PUSH2 0x81A PUSH2 0x8A8 JUMP JUMPDEST PUSH1 0x1 PUSH1 0x1 PUSH1 0xA0 SHL SUB DUP2 AND PUSH2 0x849 JUMPI PUSH1 0x40 MLOAD PUSH4 0x1E4FBDF7 PUSH1 0xE0 SHL DUP2 MSTORE PUSH1 0x0 PUSH1 0x4 DUP3 ADD MSTORE PUSH1 0x24 ADD JUMPDEST PUSH1 0x40 MLOAD DUP1 SWAP2 SUB SWAP1 REVERT JUMPDEST PUSH2 0x38E DUP2 PUSH2 0x984 JUMP JUMPDEST PUSH2 0x85A PUSH2 0x9D4 JUMP JUMPDEST PUSH1 0x2 PUSH1 0x0 DUP1 MLOAD PUSH1 0x20 PUSH2 0xD0C DUP4 CODECOPY DUP2 MLOAD SWAP2 MSTORE SSTORE JUMP JUMPDEST PUSH2 0x87B DUP4 DUP4 DUP4 PUSH1 0x1 PUSH2 0xA04 JUMP JUMPDEST PUSH2 0x8A3 JUMPI PUSH1 0x40 MLOAD PUSH4 0x5274AFE7 PUSH1 0xE0 SHL DUP2 MSTORE PUSH1 0x1 PUSH1 0x1 PUSH1 0xA0 SHL SUB DUP5 AND PUSH1 0x4 DUP3 ADD MSTORE PUSH1 0x24 ADD PUSH2 0x840 JUMP JUMPDEST POP POP POP JUMP JUMPDEST PUSH1 0x0 SLOAD PUSH1 0x1 PUSH1 0x1 PUSH1 0xA0 SHL SUB AND CALLER EQ PUSH2 0x6F6 JUMPI PUSH1 0x40 MLOAD PUSH4 0x118CDAA7 PUSH1 0xE0 SHL DUP2 MSTORE CALLER PUSH1 0x4 DUP3 ADD MSTORE PUSH1 0x24 ADD PUSH2 0x840 JUMP JUMPDEST PUSH1 0x60 DUP3 PUSH8 0xFFFFFFFFFFFFFFFF DUP2 GT ISZERO PUSH2 0x8F0 JUMPI PUSH2 0x8F0 PUSH2 0xCF5 JUMP JUMPDEST PUSH1 0x40 MLOAD SWAP1 DUP1 DUP3 MSTORE DUP1 PUSH1 0x20 MUL PUSH1 0x20 ADD DUP3 ADD PUSH1 0x40 MSTORE DUP1 ISZERO PUSH2 0x919 JUMPI DUP2 PUSH1 0x20 ADD PUSH1 0x20 DUP3 MUL DUP1 CALLDATASIZE DUP4 CALLDATACOPY ADD SWAP1 POP JUMPDEST POP SWAP1 POP PUSH1 0x0 JUMPDEST DUP4 DUP2 LT ISZERO PUSH2 0x97B JUMPI DUP3 DUP6 DUP6 DUP4 DUP2 DUP2 LT PUSH2 0x93A JUMPI PUSH2 0x93A PUSH2 0xBD4 JUMP JUMPDEST SWAP1 POP PUSH1 0x20 MUL ADD CALLDATALOAD DUP8 PUSH2 0x94C SWAP2 SWAP1 PUSH2 0xBEA JUMP JUMPDEST PUSH2 0x956 SWAP2 SWAP1 PUSH2 0xC01 JUMP JUMPDEST DUP3 DUP3 DUP2 MLOAD DUP2 LT PUSH2 0x968 JUMPI PUSH2 0x968 PUSH2 0xBD4 JUMP JUMPDEST PUSH1 0x20 SWAP1 DUP2 MUL SWAP2 SWAP1 SWAP2 ADD ADD MSTORE PUSH1 0x1 ADD PUSH2 0x91F JUMP JUMPDEST POP SWAP5 SWAP4 POP POP POP POP JUMP JUMPDEST PUSH1 0x0 DUP1 SLOAD PUSH1 0x1 PUSH1 0x1 PUSH1 0xA0 SHL SUB DUP4 DUP2 AND PUSH1 0x1 PUSH1 0x1 PUSH1 0xA0 SHL SUB NOT DUP4 AND DUP2 OR DUP5 SSTORE PUSH1 0x40 MLOAD SWAP2 SWAP1 SWAP3 AND SWAP3 DUP4 SWAP2 PUSH32 0x8BE0079C531659141344CD1FD0A4F28419497F9722A3DAAFE3B4186F6B6457E0 SWAP2 SWAP1 LOG3 POP POP JUMP JUMPDEST PUSH1 0x0 DUP1 MLOAD PUSH1 0x20 PUSH2 0xD0C DUP4 CODECOPY DUP2 MLOAD SWAP2 MSTORE SLOAD PUSH1 0x2 SUB PUSH2 0x6F6 JUMPI PUSH1 0x40 MLOAD PUSH4 0x3EE5AEB5 PUSH1 0xE0 SHL DUP2 MSTORE PUSH1 0x4 ADD PUSH1 0x40 MLOAD DUP1 SWAP2 SUB SWAP1 REVERT JUMPDEST PUSH1 0x40 MLOAD PUSH4 0xA9059CBB PUSH1 0xE0 SHL PUSH1 0x0 DUP2 DUP2 MSTORE PUSH1 0x1 PUSH1 0x1 PUSH1 0xA0 SHL SUB DUP7 AND PUSH1 0x4 MSTORE PUSH1 0x24 DUP6 SWAP1 MSTORE SWAP2 PUSH1 0x20 DUP4 PUSH1 0x44 DUP2 DUP1 DUP12 GAS CALL SWAP3 POP PUSH1 0x1 PUSH1 0x0 MLOAD EQ DUP4 AND PUSH2 0xA5E JUMPI DUP4 DUP4 ISZERO AND ISZERO PUSH2 0xA51 JUMPI RETURNDATASIZE PUSH1 0x0 DUP3 RETURNDATACOPY RETURNDATASIZE DUP2 REVERT JUMPDEST PUSH1 0x0 DUP8 EXTCODESIZE GT RETURNDATASIZE ISZERO AND DUP4 AND SWAP3 POP JUMPDEST PUSH1 0x40 MSTORE POP SWAP5 SWAP4 POP POP POP POP JUMP JUMPDEST PUSH1 0x0 PUSH1 0x20 DUP3 DUP5 SUB SLT ISZERO PUSH2 0xA7C JUMPI PUSH1 0x0 DUP1 REVERT JUMPDEST POP CALLDATALOAD SWAP2 SWAP1 POP JUMP JUMPDEST PUSH1 0x0 DUP1 DUP4 PUSH1 0x1F DUP5 ADD SLT PUSH2 0xA95 JUMPI PUSH1 0x0 DUP1 REVERT JUMPDEST POP DUP2 CALLDATALOAD PUSH8 0xFFFFFFFFFFFFFFFF DUP2 GT ISZERO PUSH2 0xAAD JUMPI PUSH1 0x0 DUP1 REVERT JUMPDEST PUSH1 0x20 DUP4 ADD SWAP2 POP DUP4 PUSH1 0x20 DUP3 PUSH1 0x5 SHL DUP6 ADD ADD GT ISZERO PUSH2 0xAC8 JUMPI PUSH1 0x0 DUP1 REVERT JUMPDEST SWAP3 POP SWAP3 SWAP1 POP JUMP JUMPDEST PUSH1 0x0 DUP1 PUSH1 0x0 DUP1 PUSH1 0x40 DUP6 DUP8 SUB SLT ISZERO PUSH2 0xAE5 JUMPI PUSH1 0x0 DUP1 REVERT JUMPDEST DUP5 CALLDATALOAD PUSH8 0xFFFFFFFFFFFFFFFF DUP1 DUP3 GT ISZERO PUSH2 0xAFD JUMPI PUSH1 0x0 DUP1 REVERT JUMPDEST PUSH2 0xB09 DUP9 DUP4 DUP10 ADD PUSH2 0xA83 JUMP JUMPDEST SWAP1 SWAP7 POP SWAP5 POP PUSH1 0x20 DUP8 ADD CALLDATALOAD SWAP2 POP DUP1 DUP3 GT ISZERO PUSH2 0xB22 JUMPI PUSH1 0x0 DUP1 REVERT JUMPDEST POP PUSH2 0xB2F DUP8 DUP3 DUP9 ADD PUSH2 0xA83 JUMP JUMPDEST SWAP6 SWAP9 SWAP5 SWAP8 POP SWAP6 POP POP POP POP JUMP JUMPDEST DUP1 CALLDATALOAD PUSH1 0x1 PUSH1 0x1 PUSH1 0xA0 SHL SUB DUP2 AND DUP2 EQ PUSH2 0xB52 JUMPI PUSH1 0x0 DUP1 REVERT JUMPDEST SWAP2 SWAP1 POP JUMP JUMPDEST PUSH1 0x0 PUSH1 0x20 DUP3 DUP5 SUB SLT ISZERO PUSH2 0xB69 JUMPI PUSH1 0x0 DUP1 REVERT JUMPDEST PUSH2 0xB72 DUP3 PUSH2 0xB3B JUMP JUMPDEST SWAP4 SWAP3 POP POP POP JUMP JUMPDEST PUSH1 0x0 DUP1 PUSH1 0x40 DUP4 DUP6 SUB SLT ISZERO PUSH2 0xB8C JUMPI PUSH1 0x0 DUP1 REVERT JUMPDEST DUP3 CALLDATALOAD SWAP2 POP PUSH2 0xB9C PUSH1 0x20 DUP5 ADD PUSH2 0xB3B JUMP JUMPDEST SWAP1 POP SWAP3 POP SWAP3 SWAP1 POP JUMP JUMPDEST PUSH4 0x4E487B71 PUSH1 0xE0 SHL PUSH1 0x0 MSTORE PUSH1 0x11 PUSH1 0x4 MSTORE PUSH1 0x24 PUSH1 0x0 REVERT JUMPDEST DUP1 DUP3 ADD DUP1 DUP3 GT ISZERO PUSH2 0xBCE JUMPI PUSH2 0xBCE PUSH2 0xBA5 JUMP JUMPDEST SWAP3 SWAP2 POP POP JUMP JUMPDEST PUSH4 0x4E487B71 PUSH1 0xE0 SHL PUSH1 0x0 MSTORE PUSH1 0x32 PUSH1 0x4 MSTORE PUSH1 0x24 PUSH1 0x0 REVERT JUMPDEST DUP1 DUP3 MUL DUP2 ISZERO DUP3 DUP3 DIV DUP5 EQ OR PUSH2 0xBCE JUMPI PUSH2 0xBCE PUSH2 0xBA5 JUMP JUMPDEST PUSH1 0x0 DUP3 PUSH2 0xC1E JUMPI PUSH4 0x4E487B71 PUSH1 0xE0 SHL PUSH1 0x0 MSTORE PUSH1 0x12 PUSH1 0x4 MSTORE PUSH1 0x24 PUSH1 0x0 REVERT JUMPDEST POP DIV SWAP1 JUMP JUMPDEST PUSH1 0x40 DUP1 DUP3 MSTORE DUP2 ADD DUP4 SWAP1 MSTORE PUSH1 0x0 DUP5 PUSH1 0x60 DUP4 ADD DUP3 JUMPDEST DUP7 DUP2 LT ISZERO PUSH2 0xC64 JUMPI PUSH1 0x1 PUSH1 0x1 PUSH1 0xA0 SHL SUB PUSH2 0xC4F DUP5 PUSH2 0xB3B JUMP JUMPDEST AND DUP3 MSTORE PUSH1 0x20 SWAP3 DUP4 ADD SWAP3 SWAP1 SWAP2 ADD SWAP1 PUSH1 0x1 ADD PUSH2 0xC36 JUMP JUMPDEST POP PUSH1 0x20 SWAP2 POP DUP4 DUP2 SUB PUSH1 0x20 DUP6 ADD MSTORE DUP1 DUP6 MLOAD DUP1 DUP4 MSTORE PUSH1 0x20 DUP4 ADD SWAP2 POP PUSH1 0x20 DUP8 ADD SWAP3 POP PUSH1 0x0 JUMPDEST DUP2 DUP2 LT ISZERO PUSH2 0xCA2 JUMPI DUP4 MLOAD DUP4 MSTORE SWAP3 DUP5 ADD SWAP3 SWAP2 DUP5 ADD SWAP2 PUSH1 0x1 ADD PUSH2 0xC86 JUMP JUMPDEST POP SWAP1 SWAP9 SWAP8 POP POP POP POP POP POP POP POP JUMP JUMPDEST PUSH1 0x0 PUSH1 0x1 DUP3 ADD PUSH2 0xCC2 JUMPI PUSH2 0xCC2 PUSH2 0xBA5 JUMP JUMPDEST POP PUSH1 0x1 ADD SWAP1 JUMP JUMPDEST DUP2 DUP2 SUB DUP2 DUP2 GT ISZERO PUSH2 0xBCE JUMPI PUSH2 0xBCE PUSH2 0xBA5 JUMP JUMPDEST PUSH1 0x0 PUSH1 0x20 DUP3 DUP5 SUB SLT ISZERO PUSH2 0xCEE JUMPI PUSH1 0x0 DUP1 REVERT JUMPDEST POP MLOAD SWAP2 SWAP1 POP JUMP JUMPDEST PUSH4 0x4E487B71 PUSH1 0xE0 SHL PUSH1 0x0 MSTORE PUSH1 0x41 PUSH1 0x4 MSTORE PUSH1 0x24 PUSH1 0x0 REVERT INVALID SWAP12 PUSH24 0x9B17422D0DF92223018B32B4D1FA46E071723D6817E2486D STOP EXTCODESIZE 0xEC 0xC5 PUSH0 STOP LOG2 PUSH5 0x6970667358 0x22 SLT KECCAK256 SLOAD 0xD8 CREATE2 MLOAD 0xD6 0xB9 0xE8 EXTCODEHASH COINBASE DUP15 DUP7 CREATE PUSH7 0x51F46A0CFE7BD1 DUP4 SWAP6 PUSH25 0xA23516E76477E34A764736F6C634300081800330000000000 "},"methodIdentifiers":{"claim()":"4e71d92d","claimEpoch(uint256)":"0ba9949f","claimable(uint256,address)":"a0c7f71c","currentEpoch()":"76671808","distributeEpoch(address[],uint256[])":"11c27e11","epochBalance(uint256)":"54631dda","epochDuration()":"4ff0876a","epochStartTime()":"f60ca641","owner()":"8da5cb5b","pendingRewards(address)":"31d7a262","poolBalance()":"96365d44","receiveForfeit(uint256)":"a7d6c4a0","renounceOwnership()":"715018a6","totalClaimed(address)":"ef5d9ae8","totalDistributed()":"efca2eed","totalReceived()":"a3c2c462","transferOwnership(address)":"f2fde38b","usdt()":"2f48ab7d"}}}}}