{
  "_format": "hh-sol-artifact-1",
  "contractName": "CommunityPool",
  "sourceName": "src/CommunityPool.sol",
  "abi": [
    {
      "inputs": [
        {
          "internalType": "address",
          "name": "_usdt",
          "type": "address"
        }
      ],
      "stateMutability": "nonpayable",
      "type": "constructor"
    },
    {
      "inputs": [],
      "name": "ArrayLengthMismatch",
      "type": "error"
    },
    {
      "inputs": [],
      "name": "DistributionExceedsBalance",
      "type": "error"
    },
    {
      "inputs": [],
      "name": "NoClaimable",
      "type": "error"
    },
    {
      "inputs": [
        {
          "internalType": "address",
          "name": "owner",
          "type": "address"
        }
      ],
      "name": "OwnableInvalidOwner",
      "type": "error"
    },
    {
      "inputs": [
        {
          "internalType": "address",
          "name": "account",
          "type": "address"
        }
      ],
      "name": "OwnableUnauthorizedAccount",
      "type": "error"
    },
    {
      "inputs": [],
      "name": "ReentrancyGuardReentrantCall",
      "type": "error"
    },
    {
      "inputs": [
        {
          "internalType": "address",
          "name": "token",
          "type": "address"
        }
      ],
      "name": "SafeERC20FailedOperation",
      "type": "error"
    },
    {
      "anonymous": false,
      "inputs": [
        {
          "indexed": true,
          "internalType": "address",
          "name": "user",
          "type": "address"
        },
        {
          "indexed": true,
          "internalType": "uint256",
          "name": "epoch",
          "type": "uint256"
        },
        {
          "indexed": false,
          "internalType": "uint256",
          "name": "amount",
          "type": "uint256"
        }
      ],
      "name": "Claimed",
      "type": "event"
    },
    {
      "anonymous": false,
      "inputs": [
        {
          "indexed": true,
          "internalType": "uint256",
          "name": "epoch",
          "type": "uint256"
        },
        {
          "indexed": false,
          "internalType": "address[]",
          "name": "winners",
          "type": "address[]"
        },
        {
          "indexed": false,
          "internalType": "uint256[]",
          "name": "amounts",
          "type": "uint256[]"
        }
      ],
      "name": "EpochDistributed",
      "type": "event"
    },
    {
      "anonymous": false,
      "inputs": [
        {
          "indexed": true,
          "internalType": "uint256",
          "name": "epoch",
          "type": "uint256"
        },
        {
          "indexed": false,
          "internalType": "uint256",
          "name": "amount",
          "type": "uint256"
        }
      ],
      "name": "ForfeitReceived",
      "type": "event"
    },
    {
      "anonymous": false,
      "inputs": [
        {
          "indexed": true,
          "internalType": "address",
          "name": "previousOwner",
          "type": "address"
        },
        {
          "indexed": true,
          "internalType": "address",
          "name": "newOwner",
          "type": "address"
        }
      ],
      "name": "OwnershipTransferred",
      "type": "event"
    },
    {
      "inputs": [],
      "name": "claim",
      "outputs": [],
      "stateMutability": "nonpayable",
      "type": "function"
    },
    {
      "inputs": [
        {
          "internalType": "uint256",
          "name": "epoch",
          "type": "uint256"
        }
      ],
      "name": "claimEpoch",
      "outputs": [],
      "stateMutability": "nonpayable",
      "type": "function"
    },
    {
      "inputs": [
        {
          "internalType": "uint256",
          "name": "",
          "type": "uint256"
        },
        {
          "internalType": "address",
          "name": "",
          "type": "address"
        }
      ],
      "name": "claimable",
      "outputs": [
        {
          "internalType": "uint256",
          "name": "",
          "type": "uint256"
        }
      ],
      "stateMutability": "view",
      "type": "function"
    },
    {
      "inputs": [],
      "name": "currentEpoch",
      "outputs": [
        {
          "internalType": "uint256",
          "name": "",
          "type": "uint256"
        }
      ],
      "stateMutability": "view",
      "type": "function"
    },
    {
      "inputs": [
        {
          "internalType": "address[]",
          "name": "winners",
          "type": "address[]"
        },
        {
          "internalType": "uint256[]",
          "name": "weights",
          "type": "uint256[]"
        }
      ],
      "name": "distributeEpoch",
      "outputs": [],
      "stateMutability": "nonpayable",
      "type": "function"
    },
    {
      "inputs": [
        {
          "internalType": "uint256",
          "name": "",
          "type": "uint256"
        }
      ],
      "name": "epochBalance",
      "outputs": [
        {
          "internalType": "uint256",
          "name": "",
          "type": "uint256"
        }
      ],
      "stateMutability": "view",
      "type": "function"
    },
    {
      "inputs": [],
      "name": "epochDuration",
      "outputs": [
        {
          "internalType": "uint256",
          "name": "",
          "type": "uint256"
        }
      ],
      "stateMutability": "view",
      "type": "function"
    },
    {
      "inputs": [],
      "name": "epochStartTime",
      "outputs": [
        {
          "internalType": "uint256",
          "name": "",
          "type": "uint256"
        }
      ],
      "stateMutability": "view",
      "type": "function"
    },
    {
      "inputs": [],
      "name": "owner",
      "outputs": [
        {
          "internalType": "address",
          "name": "",
          "type": "address"
        }
      ],
      "stateMutability": "view",
      "type": "function"
    },
    {
      "inputs": [
        {
          "internalType": "address",
          "name": "user",
          "type": "address"
        }
      ],
      "name": "pendingRewards",
      "outputs": [
        {
          "internalType": "uint256",
          "name": "total",
          "type": "uint256"
        }
      ],
      "stateMutability": "view",
      "type": "function"
    },
    {
      "inputs": [],
      "name": "poolBalance",
      "outputs": [
        {
          "internalType": "uint256",
          "name": "",
          "type": "uint256"
        }
      ],
      "stateMutability": "view",
      "type": "function"
    },
    {
      "inputs": [
        {
          "internalType": "uint256",
          "name": "amount",
          "type": "uint256"
        }
      ],
      "name": "receiveForfeit",
      "outputs": [],
      "stateMutability": "nonpayable",
      "type": "function"
    },
    {
      "inputs": [],
      "name": "renounceOwnership",
      "outputs": [],
      "stateMutability": "nonpayable",
      "type": "function"
    },
    {
      "inputs": [
        {
          "internalType": "address",
          "name": "",
          "type": "address"
        }
      ],
      "name": "totalClaimed",
      "outputs": [
        {
          "internalType": "uint256",
          "name": "",
          "type": "uint256"
        }
      ],
      "stateMutability": "view",
      "type": "function"
    },
    {
      "inputs": [],
      "name": "totalDistributed",
      "outputs": [
        {
          "internalType": "uint256",
          "name": "",
          "type": "uint256"
        }
      ],
      "stateMutability": "view",
      "type": "function"
    },
    {
      "inputs": [],
      "name": "totalReceived",
      "outputs": [
        {
          "internalType": "uint256",
          "name": "",
          "type": "uint256"
        }
      ],
      "stateMutability": "view",
      "type": "function"
    },
    {
      "inputs": [
        {
          "internalType": "address",
          "name": "newOwner",
          "type": "address"
        }
      ],
      "name": "transferOwnership",
      "outputs": [],
      "stateMutability": "nonpayable",
      "type": "function"
    },
    {
      "inputs": [],
      "name": "usdt",
      "outputs": [
        {
          "internalType": "contract IERC20",
          "name": "",
          "type": "address"
        }
      ],
      "stateMutability": "view",
      "type": "function"
    }
  ],
  "bytecode": "0x60a060405262093a8060015534801561001757600080fd5b50604051610eb0380380610eb0833981016040819052610036916100ef565b338061005c57604051631e4fbdf760e01b81526000600482015260240160405180910390fd5b6100658161009f565b5060017f9b779b17422d0df92223018b32b4d1fa46e071723d6817e2486d003becc55f00556001600160a01b03166080524260035561011f565b600080546001600160a01b038381166001600160a01b0319831681178455604051919092169283917f8be0079c531659141344cd1fd0a4f28419497f9722a3daafe3b4186f6b6457e09190a35050565b60006020828403121561010157600080fd5b81516001600160a01b038116811461011857600080fd5b9392505050565b608051610d6161014f60003960008181610148015281816103180152818161067301526107220152610d616000f3fe608060405234801561001057600080fd5b50600436106101165760003560e01c80638da5cb5b116100a2578063a7d6c4a011610071578063a7d6c4a014610237578063ef5d9ae81461024a578063efca2eed1461026a578063f2fde38b14610273578063f60ca6411461028657600080fd5b80638da5cb5b146101ea57806396365d44146101fb578063a0c7f71c14610203578063a3c2c4621461022e57600080fd5b80634e71d92d116100e95780634e71d92d146101a85780634ff0876a146101b057806354631dda146101b9578063715018a6146101d957806376671808146101e157600080fd5b80630ba9949f1461011b57806311c27e11146101305780632f48ab7d1461014357806331d7a26214610187575b600080fd5b61012e610129366004610a6a565b61028f565b005b61012e61013e366004610acf565b610391565b61016a7f000000000000000000000000000000000000000000000000000000000000000081565b6040516001600160a01b0390911681526020015b60405180910390f35b61019a610195366004610b57565b61056e565b60405190815260200161017e565b61012e6105b9565b61019a60015481565b61019a6101c7366004610a6a565b60046020526000908152604090205481565b61012e6106f8565b61019a60025481565b6000546001600160a01b031661016a565b61019a61070a565b61019a610211366004610b79565b600560209081526000928352604080842090915290825290205481565b61019a60075481565b61012e610245366004610a6a565b61079a565b61019a610258366004610b57565b60066020526000908152604090205481565b61019a60085481565b61012e610281366004610b57565b610812565b61019a60035481565b610297610852565b6000818152600560209081526040808320338452909152812054908190036102d257604051631129777360e21b815260040160405180910390fd5b60008281526005602090815260408083203384528252808320839055600690915281208054839290610305908490610bbb565b9091555061033f90506001600160a01b037f000000000000000000000000000000000000000000000000000000000000000016338361086e565b604051818152829033907f987d620f307ff6b94d58743cb7a7509f24071586a77759b77c2d4e29f75a2f9a9060200160405180910390a35061038e6001600080516020610d0c83398151915255565b50565b6103996108a8565b8281146103b95760405163512509d360e11b815260040160405180910390fd5b60025460009081526004602052604081205490805b83811015610404578484828181106103e8576103e8610bd4565b90506020020135826103fa9190610bbb565b91506001016103ce565b506000805b868110156104ca5760008387878481811061042657610426610bd4565b90506020020135866104389190610bea565b6104429190610c01565b60025460009081526005602052604081209192508291908b8b8681811061046b5761046b610bd4565b90506020020160208101906104809190610b57565b6001600160a01b03166001600160a01b0316815260200190815260200160002060008282546104af9190610bbb565b909155506104bf90508184610bbb565b925050600101610409565b50828111156104ec576040516314af0bab60e31b815260040160405180910390fd5b80600860008282546104fe9190610bbb565b90915550506002547f3e61b1f1cf6b6f9c11303e59e21302b59cefe4eea6fed2dfde9b2d5c840048b68888610535878a8a896108d5565b60405161054493929190610c23565b60405180910390a26002805490600061055c83610cb0565b90915550504260035550505050505050565b6000805b6002548110156105b35760008181526005602090815260408083206001600160a01b03871684529091529020546105a99083610bbb565b9150600101610572565b50919050565b6105c1610852565b6000805b60025481101561061f57600081815260056020908152604080832033845290915290205480156106165760008281526005602090815260408083203384529091528120556106138184610bbb565b92505b506001016105c5565b508060000361064157604051631129777360e21b815260040160405180910390fd5b3360009081526006602052604081208054839290610660908490610bbb565b9091555061069a90506001600160a01b037f000000000000000000000000000000000000000000000000000000000000000016338361086e565b60016002546106a99190610cc9565b60405182815233907f987d620f307ff6b94d58743cb7a7509f24071586a77759b77c2d4e29f75a2f9a9060200160405180910390a3506106f66001600080516020610d0c83398151915255565b565b6107006108a8565b6106f66000610984565b6040516370a0823160e01b81523060048201526000907f00000000000000000000000000000000000000000000000000000000000000006001600160a01b0316906370a0823190602401602060405180830381865afa158015610771573d6000803e3d6000fd5b505050506040513d601f19601f820116820180604052508101906107959190610cdc565b905090565b600254600090815260046020526040812080548392906107bb908490610bbb565b9250508190555080600760008282546107d49190610bbb565b90915550506002546040518281527f6feaae618d9efee105cb31a6643dababb92d56675fa64ae67a083d43a6b31d179060200160405180910390a250565b61081a6108a8565b6001600160a01b03811661084957604051631e4fbdf760e01b8152600060048201526024015b60405180910390fd5b61038e81610984565b61085a6109d4565b6002600080516020610d0c83398151915255565b61087b8383836001610a04565b6108a357604051635274afe760e01b81526001600160a01b0384166004820152602401610840565b505050565b6000546001600160a01b031633146106f65760405163118cdaa760e01b8152336004820152602401610840565b60608267ffffffffffffffff8111156108f0576108f0610cf5565b604051908082528060200260200182016040528015610919578160200160208202803683370190505b50905060005b8381101561097b578285858381811061093a5761093a610bd4565b905060200201358761094c9190610bea565b6109569190610c01565b82828151811061096857610968610bd4565b602090810291909101015260010161091f565b50949350505050565b600080546001600160a01b038381166001600160a01b0319831681178455604051919092169283917f8be0079c531659141344cd1fd0a4f28419497f9722a3daafe3b4186f6b6457e09190a35050565b600080516020610d0c833981519152546002036106f657604051633ee5aeb560e01b815260040160405180910390fd5b60405163a9059cbb60e01b60008181526001600160a01b038616600452602485905291602083604481808b5af192506001600051148316610a5e578383151615610a51573d6000823e3d81fd5b6000873b113d1516831692505b60405250949350505050565b600060208284031215610a7c57600080fd5b5035919050565b60008083601f840112610a9557600080fd5b50813567ffffffffffffffff811115610aad57600080fd5b6020830191508360208260051b8501011115610ac857600080fd5b9250929050565b60008060008060408587031215610ae557600080fd5b843567ffffffffffffffff80821115610afd57600080fd5b610b0988838901610a83565b90965094506020870135915080821115610b2257600080fd5b50610b2f87828801610a83565b95989497509550505050565b80356001600160a01b0381168114610b5257600080fd5b919050565b600060208284031215610b6957600080fd5b610b7282610b3b565b9392505050565b60008060408385031215610b8c57600080fd5b82359150610b9c60208401610b3b565b90509250929050565b634e487b7160e01b600052601160045260246000fd5b80820180821115610bce57610bce610ba5565b92915050565b634e487b7160e01b600052603260045260246000fd5b8082028115828204841417610bce57610bce610ba5565b600082610c1e57634e487b7160e01b600052601260045260246000fd5b500490565b6040808252810183905260008460608301825b86811015610c64576001600160a01b03610c4f84610b3b565b16825260209283019290910190600101610c36565b5060209150838103602085015280855180835260208301915060208701925060005b81811015610ca257835183529284019291840191600101610c86565b509098975050505050505050565b600060018201610cc257610cc2610ba5565b5060010190565b81810381811115610bce57610bce610ba5565b600060208284031215610cee57600080fd5b5051919050565b634e487b7160e01b600052604160045260246000fdfe9b779b17422d0df92223018b32b4d1fa46e071723d6817e2486d003becc55f00a2646970667358221220d1b56035a86cf16826af212d0077267eedf8c1691d259eeec978acea9342789564736f6c63430008180033",
  "linkReferences": {},
  "deployedLinkReferences": {}
}